S01200006E65772D73322D706D752E7372656377
S31500000000A8420020F11300001D120000ED130000AD
S31500000010ED130000ED130000ED130000ED130000DA
S31500000020000000000000000000000000ED130000CA
S31500000030ED13000000000000ED130000ED130000BA
S31500000040390C0000C90B0000D90F0000450D000057
S31500000050190E0000350F0000190E0000350F0000C4
S31500000060D90300004D03000065040000A50400004C
S31500000070000000000000000000000000000000007A
S31500000080000000000000000000000000000000006A
S31500000090000000000000000000000000000000005A
S315000000A0000000000000000000000000000000004A
S315000000B0000000000000000000000000000000003A
S315000000C0000000000000000000000000000000002A
S315000000D0000000000000000000000000000000001A
S315000000E0000000000000000000000000000000000A
S315000000F000000000000000000000000000000000FA
S3150000010000000000000000000000000000000000E9
S3150000011000000000000000000000000000000000D9
S3150000012000000000000000000000000000000000C9
S3150000013000000000000000000000000000000000B9
S3150000014000000000000000000000000000000000A9
S315000001500000000000000000000000000000000099
S315000001600000000000000000000000000000000089
S315000001700000000000000000000000000000000079
S315000001800000000000000000000000000000000069
S315000001900000000000000000000000000000000059
S315000001A00000000000000000000000000000000049
S315000001B00000000000000000000000000000000039
S315000001C0FFFFFFFFFFFFFFFFFFFFFFFFFFFFFFFF39
S315000001D0FFFFFFFFFFFFFFFFFFFFFFFFFFFFFFFF29
S315000001E0FFFFFFFFFFFFFFFFFFFFFFFFFFFFFFFF19
S315000001F0FFFFFFFFFFFFFFFFFFFFFFFFFFFFFFFF09
S3150000020010B5054C237833B9044B13B1044800E00C
S3150000021000BF0123237010BD9800002000000000DD
S315000002201C19000008B5034B1BB10349034800E045
S3150000023000BF08BD000000009C0000201C19000043
S3150000024000B5436883B001890DF10702186800F014
S3150000025069F99DF8070003B05DF804FB43680A4698
S315000002600189186800F088B94368186800F054B925
S3150000027043688172D3E9000100F0B8BA70B50D4C3D
S315000002800D4ED4E9000100F0B1FA21464FF4816227
S315000002900A4800F023F80546094C4FF47A710846DF
S315000002A000F088FF284600F025F823683060013307
S315000002B02360F2E7D0160000B40000200000002002
S315000002C0B8000020022800D07047024B0248596847
S315000002D000F08CBAD0160000BC00002070B50646AF
S315000002E00C200D46144601F0EFF8C0E900650481C4
S315000002F070BD00BF0368DB68184700BF08B5FFF78D
S31500000300BDFF002008BD00BFF0B5846A85B0054674
S315000003100F4694466E46B4B194E80F0086E80F0087
S31500000320EB6920461B7884F804C02360EB6AC4E9B5
S3150000033002736B6A9847AC6A1CB196E80F0084E8B2
S315000003400F0005B0F0BD3446EAE700BF30B4EFF366
S315000003500383103B5BB21E4A03F1C00152F8210031
S315000003601C4C6FF3104042F8210054F82300C36977
S315000003701B691BB103691BB130BC704703697BB9AC
S31500000380D0E908240021937803F07F0343F00403A7
S315000003909370C160002CEFD030BC8022FFF7B4BF51
S315000003A0827802F003010229C1680BD0046A91F831
S315000003B000C084F803C002F003029B1A0A44C0E995
S315000003C00323D8E70C88056A44F47E44EC81F2E7FF
S315000003D0006000400801002010B582B0EFF30383EF
S315000003E0103B1E4A5BB203F1C00152F821001C4CBF
S315000003F06FF3104042F8210054F82340A27802F02F
S315000004000303022B236A0CBF198A5979A3690CBF0F
S31500000410C1F30801C9B2019143B9636AB3B10422B9
S31500000420204602B0BDE81040FFF76EBF02F003029F
S3150000043001A9606901F050F8D4E90521A37803F019
S3150000044003031A44C91AC4E9052109B102B010BD53
S31500000450636A002BFAD00122E2E700BF0060004089
S315000004600801002010B5EFF303840C4B103C64B276
S3150000047053F82400D0E90821937803F07B039370A6
S3150000048019B102220021FFF73FFF054BC03453F894
S3150000049024206FF3104243F8242010BD08010020E9
S315000004A00060004010B5EFF30384194B103C64B2B2
S315000004B053F82400837803F00303022B036A0CBF6E
S315000004C0198A597993F804C00CBFC1F30801C9B25F
S315000004D01CF0100F0CF0380206D093F81CC01CF06C
S315000004E0010F08BF42F0400293F804C00CF0C70C9D
S315000004F083F804C0436A0BB1FFF706FF054BC0340F
S3150000050053F824206FF3104243F8242010BD00BF97
S3150000051008010020006000400022034610461A60D1
S31500000520704700BF0B0A10B41B01064C53FA81F149
S3150000053054F821300020C3F340035DF8044B1370D8
S31500000540704700BF00080840090A490101F18041CF
S3150000055001F500214B68002013807047090A490104
S3150000056023EA020C01F180411A4001F5002142EA1A
S315000005700C4200208A6070470123C8B283404AB902
S315000005801A040B0A5B0103F1804303F500230020E4
S315000005909A6070479AB2F4E7090A490101F180416D
S315000005A001F5002110B40C6802EA030C4CEA040CB5
S315000005B062EA030202EA0C0200205DF8044B0A60BC
S315000005C0704700BF090A490101F1804101F5002188
S315000005D04B680020C3F30F4313807047012310B408
S315000005E04FEA112C4FEA4C1C0CF1804C0CF5002CF8
S315000005F0DCF80440C9B203FA01F18BB201EA1441F6
S31500000600C91AB1FA81F1490900205DF8044B11704D
S31500000610704700BF090A490123EA020C01F1804133
S315000006201A4001F5002142EA0C420020CA607047D8
S3150000063006207047012A14D04FF480300B0A5B0164
S3150000064003F1804303F5002310B4CAB2DC6800FA54
S3150000065002F22243120C120400205DF8044BDA6009
S3150000066070470B0A5B0103F1804303F50023D8684A
S31500000670C9B28A40024392B20020DA60704700BFD6
S3150000068038B50488002C4CD00021436840F202455E
S31500000690043303EBC40040F2034C40F2044E0C4614
S315000006A00FE062452FD153F8042C02F0B852B2F194
S315000006B0807F14BF41F0020144F0020408338342F4
S315000006C010D01A88AA42ECD153F8042C083302F051
S315000006D0B852B2F1807F14BF41F0010144F0010429
S315000006E08342EED1C943CDB2012000F033FE0E4B5A
S315000006F0012093F8BB2414432C4083F8BB44BDE887
S31500000700384000F0F7BD7245D8D153F8042C02F0FA
S31500000710B852B2F1807F0CBF44F0040441F00401EA
S31500000720CCE7FF25E0E700BF00E00140F8B504464E
S31500000730FFF7A6FFEFF31082012383F31088284EFC
S3150000074033681BB92749CB704023CB70336801331C
S31500000750336082F3108823887BB3626803F1FF3E1F
S315000007601FFA8EFE02F108011F4C01EBCE0E08E0C7
S31500000770D2B21B0113448E450A4644F823001CD00E
S3150000078008311068928810F4803F4FEA1223EFD0A8
S31500000790130AD2B202EB031C54F82C701B0113444B
S315000007A020F480356FF310478E4544F82C700A46C6
S315000007B044F82C5044F82300E2D1EFF310820123D1
S315000007C083F31088336813B13368013B33603368B1
S315000007D01BB980200349CB70C87082F31088F8BD1E
S315000007E004010020000D08400008084008B5034B2E
S315000007F003600846FFF79AFF002008BD54524F5089
S3150000080008B50846FFF792FF002008BD70B501261F
S3150000081084B002AB68460C4615460193ADF80060FD
S31500000820ADF80C100292FFF72BFFEFF3108286F360
S3150000083010881D490B681BB940261C48C370C6703A
S315000008400B6801330B6082F31088EA034FEA142326
S31500000850E4B219D41B01164A234442F82350EFF39D
S315000008601082012383F310880B6813B10B68013BD8
S315000008700B600B681BB980200C49CB70C87082F3E3
S315000008801088002004B070BD094A04EB031052F82A
S3150000089020601B016FF3104642F8206025F4803675
S315000008A042F82060D7E700BF04010020000D084091
S315000008B00008084030B5C36B83B004460A466D464F
S315000008C08BB193E8030085E803001A70216C184683
S315000008D0A26B59609047E36B1BB195E8030083E870
S315000008E0030003B030BD2B46EFE700BF4FF42A43A9
S315000008F01D49B1F884C0A1F88430B1F884001FFA0C
S315000009008CFC80B268B14FF49642002003E0002AC6
S3150000091008BF4FF4FA70B1F88430013A9BB2002B4D
S31500000920F5D1BCF1010F0AD0BCF1800F00D07047A1
S3150000093001230E4A53605368002BFCD170474DF6D5
S315000009400111094B0A4AA3F84410A2F804C1B2F8EF
S3150000095004319BB2002BFAD101230449A2F80031DD
S315000009608B600B60704700BF00E07F400070004066
S3150000097000C00140E8220223F0B4C56A1B4C1C4E9D
S315000009802563856A0769327082B0337005F1040CFD
S315000009902B880197338003E0019B5A1E019203B313
S315000009A0D4F880305B05F7D4C36A02350233C362DC
S315000009B0036B654503F1FF3385620363E8D1D022FB
S315000009C00B4B1A7059B1D4F880301A0407D4074A71
S315000009D000E031B1D2F8803001391B04F9D500208E
S315000009E000E0142002B0F0BC704700BF00E07F407A
S315000009F000007E404FF4964310B4426883B00193E2
S31500000A00137803BB4AF68023274AA2F88430B2F84B
S31500000A1084309BB2802B08D110E0019B013B0193EF
S31500000A20B2F884309BB2802B08D0019B002BF4D106
S31500000A304FF4FA7003B05DF8044B7047002003B022
S31500000A405DF8044B704792F91130184803F1C00164
S31500000A5050F821406FF3104440F82140012103F083
S31500000A601F045B099B0003F1604303F5614301FA30
S31500000A7004F4C3F880411C6092F9132002F1C0030C
S31500000A8050F823406FF3104440F8234053099B006D
S31500000A9002F01F0203F1604301FA02F203F561431B
S31500000AA0C3F880211A60ADE700E07F400060004097
S31500000AB030B5436804461A7883B0F2B1012293F93F
S31500000AC011303E48590903F01F03203102FA03F39F
S31500000AD040F82130BFF34F8FBFF36F8F636893F9F0
S31500000AE01330590903F01F039A4001F1200340F81F
S31500000AF02320BFF34F8FBFF36F8F314BB3F8843092
S31500000B009BB2002B4FD04FF49640B3212D4B2C4A6D
S31500000B1001901970D2F880301B040CD406E0019BBA
S31500000B20013B0193D2F880301D0404D4019B002BB5
S31500000B30F5D1142507E0224B40F2F5151B7C13F086
S31500000B40100F08BF00254FF4964050211D4B1C4A3C
S31500000B5000901970D2F88030180415D406E0009B76
S31500000B60013B0093D2F8803019040DD4009B002B72
S31500000B70F5D1002D08BF1425FFF7B8FE002328463F
S31500000B8084F8343003B030BD0D4B1B7CDB060ED42D
S31500000B90002DF1D1FFF7AAFE05460023284684F86A
S31500000BA0343003B030BD2046FFF724FFABE7002DFD
S31500000BB0E2D1FFF79BFE40F2F515DFE700E100E02A
S31500000BC000E07F4000007E4030B583B0EFF3038441
S31500000BD0164A1749137C103CD2F8800064B21A07F3
S31500000BE051F824500AD4DAB213061BD4D3061BD507
S31500000BF010F4405F14BF0721062100E004212846B7
S31500000C000191FFF755FF28460A4BC03453F82420BC
S31500000C1001996FF3104243F8242003B0BDE8304039
S31500000C20FFF748BE0521EAE70721E8E700E07F4035
S31500000C30080100200060004070B5EFF30383103B0D
S31500000C40214A5BB203F1C00152F821001F4C6FF339
S31500000C50104054F8235042F8210095F83440012CF6
S31500000C6023D0022C11D01A4B93F8D430012B0CBF91
S31500000C7003240224FFF73AFE002385F83430214688
S31500000C802846BDE87040FFF715BE2C6B002CF1D04E
S31500000C902020D021AB6A0E4E0E4A3363013C40330E
S31500000CA010701170AB622C6370BD2B6B002BE1D002
S31500000CB000212846FFF75EFE0028F5D02846BDE84D
S31500000CC07040FFF7F5BE00BF00600040080100203D
S31500000CD000E07F4000007E40F0B5076A06468DB012
S31500000CE06FB3BE468C46BEE80F003D4601AC0FC44E
S31500000CF0BEE80F000FC49EE8070084E80700BCE8C2
S31500000D000F000FC5BCE80F000FC59CE807008EE872
S31500000D100700F36938469847336A73B19C460DF16C
S31500000D20040EBEE80F00ACE80F00BEE80F00ACE80A
S31500000D300F009EE807008CE807000DB0F0BD0F46D7
S31500000D40E7E700BF30B58DB0EFF30383103B2F4AC2
S31500000D505BB2C03352F823106FF3104142F82310F0
S31500000D60EFF303832A48103B5BB250F823502C2242
S31500000D70002101A800F0BDFB00206C6894F84D38F6
S31500000D8084F84D08DBB2ADF80830B4F84218C1F368
S31500000D900012C90638D543F02003ADF80830022307
S31500000DA094F8532884F8533894F85238D2B203F0A2
S31500000DB01F0384F85328E11891F8202860F3820273
S31500000DC081F820282A682846126804936B6A01A9CC
S31500000DD006930192FFF780FFB4F84238DB0611D57F
S31500000DE02B681A69127D6AB193F91530002B09DB5D
S31500000DF001215A09074803F01F03403201FA03F3A1
S31500000E0040F822300DB030BD1346DBE700600040ED
S31500000E100801002000E100E02DE9F0418CB0EFF37D
S31500000E200383103B404A5BB2C03352F823106FF382
S31500000E30104142F82310EFF3038400223B4B103C91
S31500000E4066B253F8260004F0FF04D0E900E595F8F1
S31500000E50533885F8532895F85278DBB207F01F0708
S31500000E6007F1200285F85338130155F803C0CCF377
S31500000E7080718DF82110E958DEF810301B7B43EAAB
S31500000E80D17303F001038DF82030002B48D1CCF349
S31500000E908A43079305EB02129188C1F3030301F01D
S31500000EA00F0108298DF8223037D908218DF8221034
S31500000EB000230AAA05EB071808EB030C9CF806C2E8
S31500000EC001338B4202F801CBF6D3DEF800300497EB
S31500000ED0019344232F4487F8203800234FF480627F
S31500000EE0099307AB0593436A01A90693ADF8082059
S31500000EF0FFF7F2FEB5F84238DB070BD5002E09DB0B
S31500000F0001230B4A760904F01F04403603FA04F461
S31500000F1042F826400CB0BDE8F0810029C8D1D4E7DC
S31500000F202CF06043B5E700BF0060004008010020D8
S31500000F3000E100E070B58CB0EFF30383103B234A69
S31500000F405BB2C03352F823106FF3104142F82310FE
S31500000F50EFF30383012600224FF4006C1C49103B7B
S31500000F605BB251F82350D5E90034186894F8531849
S31500000F7084F8536894F85238C9B203F01F030493F7
S31500000F80234484F8531883F8202883F820286B6AB2
S31500000F90019001A928460693ADF808C00592FFF70F
S31500000FA09BFEB4F842389B070DD52B6893F9173092
S31500000FB0002B08DB5A09074903F01F039E4002F184
S31500000FC0400341F823600CB070BD00BF00600040D4
S31500000FD00801002000E100E0F0B585B0EFF30383DF
S31500000FE0103B1D4A5BB203F1C00152F821001B4CB5
S31500000FF06FF3104042F8210054F82340D4E901125F
S315000010000978137A0129DBB204D1F42103F0F00345
S31500001010117213722769B7B1656901AECDB195E852
S31500001020070086E807009B0644BF00232B71A369CF
S3150000103028462B60B84763691BB196E8070083E82A
S315000010400700A268137ADBB203F00F03137205B030
S31500001050F0BD3546E7E700BF00600040080100200C
S31500001060064B074993F826001A6A51F82030C2F356
S3150000107002620449D3400B60704700BF00E00140A4
S315000010807C00002094020020F8B54AF203500123A8
S3150000109039493A4AA1F8FE03A2F80431B2F80431FC
S315000010A09BB2002BFAD101214FF400404FF0200EE5
S315000010B04FF0090C324C334F334D6760334F2E4B94
S315000010C0E760334EA2F80011324AA96029606261D6
S315000010D0266093F82620A0602061186A54F8222022
S315000010E02D4DC0F30260C2402A6083F813E483F8F2
S315000010F0A2C093F88024002A36D000231E4981F826
S31500001100813481F8803481F8323091F83C301A0706
S31500001110FBD54FF498500023174A088581F82A30EA
S3150000112092F83C309B06FBD501200521134B4FF06E
S31500001130F10C83F81C01194B82F82610136292F801
S315000011402630106A54F82310C0F30260C140002410
S315000011502960F0204FF42541114B83F80CC01C7216
S315000011601873A2F8FE13F8BD40F2C44083F8801449
S3150000117000F020F8C1E700BF00E0014000C00140D8
S315000011807C00002000127A0000700040001BB700AF
S31500001190002D3101000E27079402002021130321A0
S315000011A000200040704700BFA0F101000028FBD1DD
S315000011B0704700BF10B54FF47A72164C164B246870
S315000011C04FF0000EB3FBF4FC4FF0FF3300FB01F1D0
S315000011D0A1FB020483427EEB040407D3B0FBFCF0C0
S315000011E0800880B1BDE81040FFF7DEBF4FEA8C0CE7
S315000011F0B1FBFCF1A1FB02128B427EEB020203D390
S3150000120008460028EED110BD1846BDE81040FFF78D
S31500001210CBBF00BF9402002000CA9A3B70B50024E1
S315000012200A4B0B4EB3F84051ADB225FA04F3DB0777
S31500001230E0B203D556F8243003B198470134102C98
S31500001240F3D1024BA3F8305170BD00BF00600040DF
S31500001250C400002030B56FF0FF0585B0032000F014
S3150000126079F84FF0FF311F4C1F4822468564002352
S315000012700125CDE90111039104F1C00E32F8020FE8
S31500001280590960B104A800EB810151F80C0C03F078
S315000012901F0C05FA0CFC20EA0C0041F80C0C7245F8
S315000012A003F10103EAD10199104B0F4A032011679C
S315000012B0C3F8801202995167C3F8841203999167A3
S315000012C0C3F8881200F016F80023094803F1C0029B
S315000012D034F8021F0133602B40F82210F6D105B016
S315000012E030BD00BFBA1700000080004000E100E0FA
S315000012F000600040EFF31081012383F31088124B46
S3150000130033F8102092B22AB133F81020013A92B283
S3150000131023F8102033F810309BB293B90B4A10B45F
S31500001320B2F8FE330A4C9BB234F8100043F425435E
S3150000133023EA0003A2F8FE3381F310885DF8044B1C
S31500001340704781F3108870478802002000E0014052
S31500001350B418000030B4EFF31081012383F3108832
S315000013600E4A32F810309BB26BB90D4C0D4DB4F8E5
S31500001370FE3335F810C09BB243EA0C0343F4254311
S315000013809BB2A4F8FE3332F8103001339BB222F838
S31500001390103081F3108830BC704700BF88020020EF
S315000013A000E00140B41800000D4908B50A6803467C
S315000013B04AB103330B4823F003031344834206D890
S315000013C010460B6008BD084802460860F1E700F0C9
S315000013D075F80C234FF0FF320360104608BD00BFBE
S315000013E090020020A8220020A802002000BE70471C
S315000013F008B500F003F8FEF781FFFEE74FF4700131
S31500001400234B244A70B50020C3F888109A60FEF773
S3150000141059FFFFF739FE0120FEF754FF1E4B83F3F9
S315000014200A881E481E4A0021121A00F062F81D485A
S315000014301D4A1E49121A00F04FF81D4D1D4B5B1B2D
S31500001440002B07DD00249E1055F8043B0134984715
S31500001450A642F9DCFFF704FE0320FFF77BFF00231B
S315000014604FF6FF70144903F108020133092B21F8E6
S315000014701200F8D10320FFF73DFF0220FEF722FFFE
S31500001480FFF7E8FEBDE870400020FFF78BBE00BF07
S3150000149000ED00E000000000A822002098000020D7
S315000014A0A8020020000000207C0000202019000077
S315000014B07400002078000020000D0840014B1868D9
S315000014C0704700BF10000020024B0146186800F06C
S315000014D039B800BF100000200A44431E914200D1D3
S315000014E0704710B511F8014B914203F8014FF9D13D
S315000014F010BD02440346934200D1704703F8011B16
S31500001500F9E7FFFF70B50E4E0C460546316811B976
S3150000151000F08CF830602146284600F087F8431C1E
S315000015200AD0C41C24F00304A04207D0211A28467E
S3150000153000F07CF8013001D14FF0FF34204670BD39
S315000015409C0200202DE9F041CD1C074625F003053D
S3150000155008350C2D38BF0C25002D01DBA94205D915
S315000015600C2300263B603046BDE8F0812E4E00F08D
S315000015706FF833681C4634BB29463846FFF7C2FF6E
S31500001580431C04464DD134682646002E40D12368BC
S315000015903146384604EB030800F048F880453AD156
S315000015A02168033538466D1A25F0030508350C2DDC
S315000015B038BF0C252946FFF7A5FF01302BD023683D
S315000015C02B4423600EE02268521B1ED40B2A16D928
S315000015D06119A342256018BF5960636808BF31606E
S315000015E062514B6004F10B06384600F037F8231DB4
S315000015F026F00706F21AB6D09B1BA350B3E7626823
S31500001600A3420CBF32605A60ECE723466468B2E737
S3150000161034467668B9E70C2338463B6000F01EF87E
S31500001620A1E72560DEE700BF9802002038B5002359
S31500001630054D044608462B60FFF7B6FE431C02D153
S315000016402B6803B1236038BDA402002070477047A1
S315000016500148FFF7FBBF00BFA00200200148FFF7CB
S31500001660F6BF00BFA00200204275696C742077693E
S3150000167074682052656E6573617320416476616E8D
S3150000168063656420466C657869626C6520536F6695
S315000016907477617265205061636B6167652076655A
S315000016A07273696F6E20332E382E3000332E382E2B
S315000016B03000000000000803F8B500BFF8BC08BC05
S315000016C09E467047F8B500BFF8BC08BC9E467047FA
S315000016D0BC000020DC1600007C1800001B00000087
S315000016E0E4160000040000000000000004000000F2
S315000016F0010000000400000002000000008000005D
S315000017000D000000040000000E00000010000000A4
S315000017100F0000000400000000010000100000009F
S31500001720010100000000011002010000000001108C
S315000017300301000004000000040100000000010095
S315000017400801000004000000090100000400000078
S315000017500B010000040000000C0100001000000056
S31500001760000200000400000001020000100000005A
S315000017700602000000000000070200000000010051
S315000017800003000010000000010300000400000038
S315000017900203000004000000020400001000000024
S315000017A007040000100000000804000010000000FC
S315000017B00904000000800000000500003100300030
S315000017C04000A100A400A500A200A30080018101A1
S315000017D082018301000000000000000000000000FC
S315000017E000000000000000000000000000000000F3
S315000017F000000000000000000000000000000000E3
S3150000180000000000000000000000000000000000D2
S3150000181000000000000000000000000000000000C2
S3150000182000000000000000000000000000000000B2
S3150000183000000000000000000000000000000000A2
S315000018400000000000000000000000000000000092
S315000018500000000000000000000000000000000082
S315000018600000000000000000000000000000000072
S31500001870000000000000000000000000ED0700006E
S3150000188019050000010800000D080000DD05000034
S315000018903506000031060000250500007905000028
S315000018A099050000C5050000150600004905000061
S315000018B05D050000010002000800100000000000A5
S315000018C00000000000000000000000000000000012
S315000018D00000000000000000000000000000000002
S315000018E000000000000000000000000000000000F2
S315000018F000000000000000000000000000000000E2
S3150000190000000000000000000000000000000000D1
S3150000191000000000000000000000000000000000C1
S3150000192071020000690200005D0200004102000031
S315000019301400002000000000DC180000FC18000065
S31500001940BC180000000000000000000000000000BD
S315000019500000000000000000000000000000000081
S315000019600000000000000000000000000000000071
S315000019700000000000000000000000000000000061
S315000019800000000000000000000000000000000051
S311000019900000000025020000010200001B
S3150100A100FFFFFFFFFFFFFFFFFFFFFFFFFFFFFFFF58
S3150100A110FFFFFFFFFFFFFFFFFFFFFFFFFFFFFFFF48
S3150100A120FFFFFFFFFFFFFFFFFFFFFFFFFFFFFFFF38
S30D0100A130FFFFFFFFFFFFFFFF28
S3150100A200FFFDFFFFFFFFFFFFFFFFFFFFFFFFFFFF59
S3150100A210FFFFFFFFFFFFFFFFFFFFFFFFFFFFFFFF47
S3150100A220FFFFFFFFFFFFFFFFFFFFFFFFFFFFFFFF37
S3150100A230FFFFFFFFFFFFFFFFFFFFFFFFFFFFFFFF27
S3150100A240FFFFFFFFFFFFFFFFFFFFFFFFFFFFFFFF17
S3150100A250FFFFFFFFFFFFFFFFFFFFFFFFFFFFFFFF07
S3150100A260FFFFFFFFFFFFFFFFFFFFFFFFFFFFFFFFF7
S3150100A270FFFFFFFFFFFFFFFFFFFFFFFFFFFFFFFFE7
S3150100A280F8F8FFFFFFFFFFFFFFFFFFFFFFFFFFFFE5
S3150100A290FFFFFFFFFFFFFFFFFFFFFFFFFFFFFFFFC7
S3150100A2A0FFFFFFFFFFFFFFFFFFFFFFFFFFFFFFFFB7
S3150100A2B0FFFFFFFFFFFFFFFFFFFFFFFFFFFFFFFFA7
S3110100A2C0FFFFFFFFFFFFFFFFFFFFFFFF97
S705000013F1F6
